:10000000280800100D0200000000000000000000A1
:1000100000000000000000000000000000000000E0
:1000200020B5051C2878003005D000F01AF800F043
:100030002FF80135F6E720BD00B51048FFF7F0FFB7
:1000400000BD48656C6C6F20776F726C642C2074F7
:10005000686520414E535745522069732034322140
:100060000A0000B5602803DD7B2801DA203800BDD6
:10007000402802DD5B2800DA203000BD420000008D
:10008000024B5A695206FBD5186070470080004049
:1000900008B5034B1B69002B00D0984708BDC0462C
:1000A0000000001001210320114B99671A6F824351
:1000B0001A675A6F7D308A435A675A6F0A435A67E4
:1000C0008E229200995801439950232199609958A2
:1000D000814399500121D868054A0842FAD0032388
:1000E0001367536F8B435367536F0B4353677047CB
:1000F0000080044038B5FFF7D5FF8022802180249E
:1001000007251F4B9203DA671E4B4902DA6F640121
:100110000A43DA67DA6F2243DA671B4A1168A94398
:1001200011600121106808431060184A1068A84344
:100130001060106808431060DA6F15482243DA67D0
:100140008323144CE360144B1960144B996F96236E
:100150001B03594300F0C8F8030A63600323C0B2CD
:100160002060E360A5606369602362691340602BCF
:10017000FAD16369DB0702D5064B1B68F9E738BD86
:1001800004E100E004800440A4400440A84004408E
:10019000006CDC0200800040988004400080044035
:1001A00070B5FFF7A7FF154C154B2361FFF744FF10
:1001B000A37A144E002B01D1002515E000232568F9
:1001C000F25C002A01D00133FAE7ED1A002DF3DDCD
:1001D0002369207A002B00D09847013DF6E7236978
:1001E000002B00D098470135705D0028F7D12060C2
:1001F0000548002100F068F8FAE7C046000000104A
:10020000810000000C04000080A9030000221049B6
:10021000104B10B55B1A9B0801339B00101D9842D0
:1002200004D000248A181460021CF7E700220A494F
:100230000A4B5B1A9B0801339B00101D984204D0A7
:10024000074CA4588C50021CF7E7FFF7A9FFFEE704
:10025000180000102800001000000010140000100A
:1002600028040000F8B5134E134C3578002D08D142
:10027000FFF718FF114B256063600123A560236021
:100280003370A0680E4BC043196800021A1C000AA4
:100290000C4B884208D21E685F68802400256404E5
:1002A000A4197D411C605D6010601A685968104394
:1002B000F8BDC0462400001010E000E0FFFFFF0082
:1002C000200000101800001038B5041C0D1CFFF7AA
:1002D000C9FF24184D41FFF7C5FF8D42FBDC01D15A
:1002E0008442F8D838BD0000002243088B4274D302
:1002F00003098B425FD3030A8B4244D3030B8B4227
:1003000028D3030C8B420DD3FF22090212BA030C2F
:100310008B4202D31212090265D0030B8B4219D310
:1003200000E0090AC30B8B4201D3CB03C01A524130
:10033000830B8B4201D38B03C01A5241430B8B4278
:1003400001D34B03C01A5241030B8B4201D30B0361
:10035000C01A5241C30A8B4201D3CB02C01A524188
:10036000830A8B4201D38B02C01A5241430A8B424B
:1003700001D34B02C01A5241030A8B4201D30B0234
:10038000C01A5241CDD2C3098B4201D3CB01C01A4E
:10039000524183098B4201D38B01C01A5241430958
:1003A0008B4201D34B01C01A524103098B4201D346
:1003B0000B01C01A5241C3088B4201D3CB00C01AB3
:1003C000524183088B4201D38B00C01A524143082B
:1003D0008B4201D34B00C01A5241411A00D2014650
:1003E000524110467047FFE701B5002000F00CF8BD
:1003F00002BDC0460029F7D003B5FFF775FF0EBC5C
:100400004243891A1847C0467047C0460A2A2A2024
:100410006170706C69636174696F6E20656E64658C
:0804200064202A2A0A000000F2
:10042800000000000A000000204101000000000058
:0404380000000000C0
:040000030000020DEA
:00000001FF
