:10000000680C0010F1190000000000000000000062
:1000100000000000000000000000000000000000E0
:10002000F0B542464B4654465D4666467CB46A4649
:1000300002608D467CBCB446AB46A24699469046CB
:10004000F0BDC046002200238261C361704708B53D
:10005000031E01D0081C984708BD4B7B002B22D003
:100060004B68082B10D006DC022B12D1836C622265
:10007000013B836411E00A2B15D0102B09D1836C4E
:100080007822013B836408E0836C6F22013B836428
:1000900003E0836C3F22013B83641A70836C30223F
:1000A000013B83641A70704770B5837A041C0D1C81
:1000B000002B10D006680B1C19785A1B002901D0A0
:1000C0000133F9E7B61A002E05DD217A2069FFF722
:1000D000BEFF013EF7E72978002904D02069FFF729
:1000E000B6FF0135F7E7201C216070BD10B50B4C41
:1000F000206803681B68984709490A48FFF7D4FF3E
:100100000949FFF7D1FF21680631FFF7CDFF074905
:10011000FFF7CAFF0649FFF7C7FFFEE72C000010F4
:10012000D824000000000010EB240000022500008D
:10013000A927000070B594B06B4649330022041C17
:100140000D1C1A7013934E4291421EDB0E1E1CD1E1
:1001500012AB302213931A7017E0301C616801F063
:100160004FFDC9B20A1C3032637AD2B2092903D9D1
:100170001A1C0A3A8918CAB2139B301C013B13930C
:100180001A70616801F0E6FC061C002EE5DC01A88F
:10019000211CFFF762FF002D04DA139B2D22013B87
:1001A000139306E0E37A002B04D0139B2B22013B30
:1001B00013931A701399201CFFF776FF201C14B0BC
:1001C00070BD70B596B0009201936B46513300221A
:1001D0001A70019A061C1593002A05DA009A019BF1
:1001E000002554429D4127E0009B019A009C019DFF
:1001F000134321D114AB302215931A701CE072689E
:10020000201CD317291C01F007FDD2B2111C30317C
:10021000737AC9B2092A03D9191C0A395218D1B202
:10022000159B201C013B159319707268291CD3176C
:1002300001F0F2FC041C0D1C231C2B43DFD103A88E
:10024000311CFFF70AFF019B002B04DA159B2D22BE
:10025000013B159306E0F37A002B04D0159B2B226B
:10026000013B15931A701599301CFFF71DFF301CC8
:1002700016B070BD08B50A1C0023FFF7A2FF08BD29
:10028000002301229A40104205D10133202BF8D1DE
:100290000120404200E0181C7047013951188A4281
:1002A00002D10023037070471378002BF9D003703C
:1002B00001320130F3E7000000239A008218116A2E
:1002C000034A914202D10133642BF6D19800704762
:1002D000EFBEADDEF8B5041C0D1C002A2DD0086958
:1002E0000A21FFF7B4FE10230A272B600023AB720C
:1002F00041496F60281CFFF7D7FE012606230360E3
:100300003E498672FFF7D0FE072303603C498672A0
:10031000FFF7CAFE3B4907608672FFF7C5FE3A4900
:1003200007608672FFF7C0FE0B23384903608672B0
:10033000FFF7BAFE3649FFF7B7FE10232B600A26F7
:100340000023AB726E60A11D281CFFF7ADFE0125D6
:100350000623036085724660E169FFF78BFF042383
:10036000036085722379002B01D02A4900E02A49D5
:10037000FFF79AFE6379002B01D0284900E0264957
:10038000FFF792FE62792379002A01D1002B01D078
:10039000214900E02249FFF787FE86220B239200C5
:1003A00001260360A3181A685B688672FFF709FFCD
:1003B0000A23036088239B00E1588672FFF7BAFE88
:1003C00006230360051C8672201CFFF775FFC824F6
:1003D000B440211A281CFFF7ADFE1249FFF764FE56
:1003E0000622002302608372211CFFF7A3FE084946
:1003F000FFF75AFEF8BDC0461F2500002925000062
:100400002E250000342500003B2500004225000079
:10041000A927000019250000BE2900001B250000A7
:100420001D2500004D250000F8B5051C0C1C002AF8
:1004300026D0122600270E608F72081C2B49FFF76A
:1004400033FE2660A7722A49201CFFF72DFE0126E5
:100450000323236027490827A672201CFFF724FEE8
:1004600025492760A672201CFFF71EFE234927603E
:10047000A672201CFFF718FE201C2149FFF714FE6E
:1004800012260027291C0C312660A772201CFFF7BA
:100490000BFE69682660A772B94201D0063100E000
:1004A0001849201CFFF700FE01260A2703232360BA
:1004B000A868A6726760FFF7E3FE011C201CFFF727
:1004C00039FE0823696A2360A6726760201CFFF763
:1004D000D1FE0823A96A2360A6726760201CFFF77B
:1004E000C9FE201C0649FFF7DFFDF8BDAC25000062
:1004F000B6250000BD250000C0250000C525000070
:10050000A9270000BE290000F8B5051C0C1C002A14
:1005100027D0122600270E608F72081C2C49FFF787
:10052000C3FD26602B49A772201CFFF7BDFD0126E5
:10053000032323602849A672201CFFF7B5FD08237A
:1005400023602649A672201CFFF7AEFD092324492B
:100550002360A672201CFFF7A7FD201C2149FFF78E
:10056000A3FD12260027291C0C312660A772201C2F
:10057000FFF79AFD69682660A772B94201D006317B
:1005800000E01949201CFFF78FFD01260A270323ED
:100590002360A868A6726760FFF772FE011C201C2A
:1005A000FFF7C8FD0823A96C2360A6726760201CB2
:1005B000FFF760FE0923E96C2360A6726760201CC8
:1005C000FFF758FE201C0749FFF76EFDF8BDC04637
:1005D000CA250000B6250000BD250000C02500008A
:1005E000D5250000A9270000BE290000F8B5051C8C
:1005F0000C1C002A27D0122600270E608F72081CC0
:100600002C49FFF751FD26602B49A772201CFFF7EC
:100610004BFD0126032323602849A672201CFFF707
:1006200043FD0A2323602649A672201CFFF73CFDE8
:10063000082324492360A672201CFFF735FD201CE7
:100640002149FFF731FD12260027291C0C312660B5
:10065000A772201CFFF728FD69682660A772B942BF
:1006600001D0063100E01949201CFFF71DFD0A26C4
:10067000012703232360A868A7726660FFF700FEC6
:10068000011C201CFFF756FDAA6CEB6C2660A772BC
:100690006660201CFFF795FD0823696D2360A77233
:1006A0006660201CFFF7E6FD201C0749FFF7FCFCF5
:1006B000F8BDC046DD250000B6250000BD250000C0
:1006C000E8250000F1250000A9270000BE29000050
:1006D00008B5C368202B0AD907490848FFF7E4FC8E
:1006E0000749FFF7E1FC0749FFF7DEFCFEE75A1C6C
:1006F000C2600120984008BDD8240000000000100E
:10070000F7250000A927000038B5041C002361600C
:100710008360074B0D1C036014210C30FFF7BDFDF7
:10072000D8235B00E818FFF7D3FFA060201C38BD7A
:10073000902400008B6842689A434260704708B575
:10074000011C4068B130FF30FFF7F4FF08BD08B569
:10075000FFF7F5FF08BD08B5C36C0133C364002281
:1007600000238263C363FFF7EAFF08BD08B4024BAE
:100770009C46203808BC604757070000F8B5051CA8
:100780000C1C002A1DD0122700260F608E72081C38
:100790002749FFF789FC27492760A672201CFFF72D
:1007A00083FC052323600123A3722349201CFFF748
:1007B0007BFC2249201CFFF777FC201C2049FFF717
:1007C00073FC12260027291C08312660A772201C02
:1007D000FFF76AFC29682660B94203D1A172201C88
:1007E000184902E0A7720631201CFFF75DFC0523C3
:1007F00023600123A3720A23296A6360201CFFF788
:1008000099FC201C1049FFF74FFC6D68002D0AD0A1
:10081000A91D201CFFF748FC0C49FFF745FC8B2362
:100820009B00ED58F2E7201C0949FFF73DFCF8BD9D
:10083000112600001C2600002226000028260000A9
:10084000A9270000BE29000033260000B3260000BF
:1008500039260000F8B5051C0C1C002A2ED01226E3
:1008600000270E608F72081C3049FFF71DFC2660C0
:100870002F49A772201CFFF717FC012603232360D2
:100880002C49A672201CFFF70FFC082323602A497D
:10089000A672201CFFF708FC092323602749A672D3
:1008A000201CFFF701FC0A2325492360A672201CA7
:1008B000FFF7FAFB201C2349FFF7F6FB122600275F
:1008C000291C2660A7722031201CFFF7EDFB696808
:1008D0002660A7720631201CFFF7E6FB01270323E1
:1008E0002360A868A772FFF7CBFC011C201CFFF750
:1008F00021FC0A260823A96B2360A7726660201CCE
:10090000FFF718FC09232360E96BA7726660201CBF
:10091000FFF710FC296C2660A7726660201CFFF7A9
:1009200009FC201C0749FFF7BFFBF8BD5426000057
:100930001C260000BD25000061260000682600007E
:1009400070260000A9270000F8B5051C0C1C1F4EDE
:10095000002A1AD012230B6000238B72081C1C493A
:10096000FFF7A2FB08270123A3721A492760201C66
:10097000FFF79AFB012318492760A372201CFFF799
:1009800093FB201C311CFFF78FFB12232360291CD3
:100990000023A3720C31201CFFF786FB01230827DC
:1009A000A3720A23696827606360201CFFF762FC5A
:1009B0000123A3720A23296827606360201CFFF7C4
:1009C00059FC311C201CFFF76FFBF8BDA927000064
:1009D000792600006126000083260000F8B5051C7A
:1009E0000C1C002A26D0122600270E608F72081CCD
:1009F0002D49FFF759FB26602C49A772201CFFF7F1
:100A000053FB26602A49A772201CFFF74DFB0826DE
:100A10000123A37227492660201CFFF745FB012311
:100A200025492660A372201CFFF73EFB201C2349AA
:100A3000FFF73AFB00231226291CA3720831266017
:100A4000201CFFF731FB296800232660A3720029D0
:100A500001D0063100E01A49201CFFF725FB1223C4
:100A6000696823600023A372994201D0063100E037
:100A70001349201CFFF718FB01230826A3720A2341
:100A8000E96926606360201CFFF7F4FB0123A37271
:100A90000A23296A26606360201CFFF7EBFB201CF9
:100AA0000649FFF701FBF8BD8926000096260000E5
:100AB0009D2600006126000083260000A927000073
:100AC000BE290000024B1A68186042647047C04695
:100AD00034000010024B1A68186002657047C04667
:100AE0001C000010024B1A68186042637047C04631
:100AF0004000001038B5041C151CFFF705FE094B1B
:100B0000201C236000232A1CA363E3632364636423
:100B1000A36414212030FFF7C0FB201CFFF7E2FF85
:100B2000201C38BDB0240000024B1A6818604262D5
:100B30007047C0463C00001010B50023C36103623B
:100B4000041C0A1C0360436014210830FFF7A5FB56
:100B5000201CFFF7E9FF201C10BD000070B56349A1
:100B6000041CFFF7A1FA6249FFF79EFA614D291CA8
:100B7000FFF79AFA604B1B68002B03D089220121F2
:100B8000920099545D4B01221E68002E08D0301C43
:100B9000211CFFF79FFB8A239B00F6580022F4E7F5
:100BA000002A03D0201C5649FFF77EFA201C291C7E
:100BB000FFF77AFA534B01221E68002E06D0301C34
:100BC000211CFFF731FC366A0022F6E7002A03D029
:100BD000201C4D49FFF768FA201C291CFFF764FA16
:100BE0004A4B01221E68002E06D0301C211CFFF744
:100BF0008BFC766C0022F6E7002A03D0201C4449C7
:100C0000FFF752FA201C291CFFF74EFA414B012234
:100C10001E68002E06D0301C211CFFF7E7FC366D45
:100C20000022F6E7002A03D0201C3B49FFF73CFADC
:100C3000201C291CFFF738FA384B01221E68002EB1
:100C400006D0301C211CFFF705FE766B0022F6E76C
:100C5000002A03D0201C3249FFF726FA201C291C49
:100C6000FFF722FA2F4B01221E68002E06D0301CFF
:100C7000211CFFF783FDF6690022F6E7002A03D066
:100C8000201C2949FFF710FA201C291CFFF70CFA39
:100C9000264B01221E68002E06D0301C211CFFF7B7
:100CA0009DFE766A0022F6E7002A03D0201C204928
:100CB000FFF7FAF9201C291CFFF7F6F91D4B01225A
:100CC0001E68002E06D0301C211CFFF73DFEB668C2
:100CD0000022F6E7002A03D0201C1749FFF7E4F9A9
:100CE000291C201CFFF7E0F970BDC046A4260000B7
:100CF000B5260000A92700002C00001024000010D9
:100D0000CC26000018000010D62600003400001089
:100D1000E02600001C000010EB2600004000001040
:100D2000F626000028000010032700003C000010F9
:100D30000F270000380000101D27000008B5064BE3
:100D40001868002806D08C239B00C018034B196834
:100D5000FFF766F908BDC0462C00001044000010E3
:100D600008B501234371FFF7E9FF08BD08B500236B
:100D70004371FFF7E3FF08BD08B500230371FFF7D8
:100D8000DDFF08BD08B58A68436813434360836884
:100D9000002B02D04868FFF7EFFF08BD38B5436D60
:100DA000011C01334365806C8A6BCB6B002B09DC23
:100DB00006D0041C002512196B418A63CB63F3E74C
:100DC000002AF6D04868B130FF30FFF7DBFF38BDAE
:100DD00008B4024B9C46203808BC60479D0D0000BB
:100DE00008B5011C4068B130FF30FFF7CBFF08BDEC
:100DF00008B4024B9C46203808BC6047E10D000057
:100E000008B5134B1B6883420AD012491248FFF7FA
:100E10004BF91249FFF748F91149FFF745F9FEE789
:100E200059791A79002901D1002A0AD009490A48BA
:100E3000FFF73AF90B49FFF737F90949FFF734F99A
:100E4000FEE701221A71181CFFF778FF08BDC046A3
:100E50002C000010D82400000000001048270000DB
:100E6000A927000063270000F8B5051C0C1C161C00
:100E7000E068002383421CD0616801220F1C3740C8
:100E8000DF40174213D09A400F4B91431B686160BB
:100E90002168002B14D05868884206D19868904287
:100EA00003D1986A013098620AE01B6AF0E70133C7
:100EB000E0E7A6602068FFF7A3FF0023A360D7E761
:100EC000281C29606A60F8BD1800001013B5E024E2
:100ED000640001198C6C01348C64FC2464000119D9
:100EE0000A604B60D8235B00C118E4235B00C25842
:100EF0006846FFF7B9FF13BDF8B500F0A5FD4E4BEE
:100F00001A6803C3871A002F04DC4C4B4C4C1B6837
:100F1000236022E04B4B1E68002EF6D0B269F369C5
:100F2000002B02DC10D1002A0ED03C1CFD17121B36
:100F3000AB41B261F361002B06DC01D1002A03D181
:100F40003368301C1B689847366AE5E759791A7987
:100F5000002905D08A2292009B58002BF6D102E08E
:100F6000002AF7D134E02360374B1B68002B08D0F0
:100F7000DC2258685200825899680A425AD11B6D87
:100F8000F4E7324B1B68002B0FD0DA6B002A03DC2E
:100F900009D19A6B002A06D0DC225D685200AA585B
:100FA0009868024246D15B6CEDE7294C2949201C28
:100FB000FFF77AF8201CFFF7D1FD2749201CFFF727
:100FC00073F82649FFF770F82549FFF76DF8FEE73B
:100FD000236000F039FD22688C239B00061C0F1C47
:100FE0002048D158FFF71CF800F02EFD2368892215
:100FF00092009A5C002A0DD18625AD005A195568D9
:10100000801BB9418D4203DB04D11568854201D2B2
:101010001060516089220021920099548822920028
:10102000985801309850104A0B1C1078884200D014
:1010300011702360F8BDC046480000102400001065
:101040002C000010500000101C0000103400001094
:10105000000000107F270000D8240000AB2700000C
:10106000A9270000440000102000001010B5094C12
:10107000201CFFF773FD0849201CFFF715F80A2113
:101080000069FEF7E4FF054B01221A70FFF734FFF9
:10109000FCE7C04600000010BD2700003000001033
:1010A000024B1A68186002627047C0465000001078
:1010B00070B5084B00240025061C8461C5610A1C1C
:1010C000036014210430FFF7E8F8301CFFF7E8FF55
:1010D000301C70BDA024000038B5041C151CFFF79F
:1010E00013FB201C291C2030FFF7E2FF064B201CBD
:1010F0001A1C1C330832236200232260A364E364B9
:10110000FFF7E0FC201C38BD08280000F8B5069F5A
:10111000061C141C3A1C1D1CFFF7F6FA301C391C67
:101120002030FFF7C5FF084BB464F5641A1C183370
:10113000336208320023B463F563301C3260736598
:10114000FFF7C8FC301CF8BDB8240000C269FA23C0
:1011500010B59B009A4201D8174912E01749184868
:10116000FEF7A2FF1749FEF79FFF1749FEF79CFF06
:10117000FEE7DA69C469A24218D806D08A22920032
:1011800099180B68002BF4D110E010498A4202D85C
:101190000132C261F2E709490948FEF785FF0C49AF
:1011A000FEF782FF0849FEF77FFFFEE78A229200E2
:1011B0008350086010BDC04624000010D8240000F1
:1011C00000000010CE270000A9270000E703000060
:1011D000E4270000224B70B508330360D8230025B4
:1011E000041C5B00C16105714571E050D823161CD9
:1011F0005B00E022C31852005D609D60DD608018D6
:10120000211C184AFFF768FF174BA01DE554142155
:10121000321CFFF742F8154A63191A620435C823D5
:101220005B009D42F7D1124AD6235B00E250C423F3
:101230005B00E2188C239B00E25089238622002168
:101240009B009200E154A01800220023026043603A
:1012500088239B00201CE150FFF778FF201C70BD05
:1012600030280000FC27000025020000EFBEADDEA4
:10127000ED00000008B50348FFF770FC024B0122A7
:101280001A7008BD0000001020000010024B5A69BF
:101290005106FBD5186070470080004008B5002358
:1012A000036483644364FFF74AFA08BD08B500236A
:1012B000036483644364FFF742FA08BD08B5011C68
:1012C0004068B130FF30FFF75DFD08BD08B5064B43
:1012D000064903600648FEF7E7FE0649FEF7E4FE0E
:1012E0000549FEF7E1FEFEE738280000D82400009B
:1012F00000000010C8280000A9270000000000001E
:10130000F0B589B0061C0492059300F09DFB019096
:10131000019B049C059DDA1702930392029A039B9A
:10132000A4185D4100F090FB8D4215DD124F0123A2
:10133000D8225B42520090253B60B418AD0006A84D
:10134000211C7259FFF790FD00233B60725906A8DB
:10135000211CFFF789FDDBE78D4201D18442E5D8EE
:10136000301C044B024AFFF7B1FD09B0F0BDC04686
:10137000003E49000000000020000150C046C04669
:1013800038B5274B8022D96F52020A43DA67254BC2
:1013900007211A68041C8A4381210A431A60224BE0
:1013A00008211A680A431A60A4239B00E058A4236A
:1013B0009B00E518002804D00022E250FFF7DCFC77
:1013C00012E06A68002A0AD018491948FEF76CFE34
:1013D0001849FEF769FE1849FEF766FEFEE7174B4F
:1013E00018686860FFF70CFD2B6A01332B62AD6A49
:1013F0002B78002BD8D0201C2E2B02D1054B044A71
:1014000001E0054A054BFFF77BFF0135F0E7C046D9
:10141000003E49000000000000BADB0000000000B0
:10142000048004409040044000800150D824000013
:1014300000000010F9280000A92700002C0000106F
:101440006138C0B2192803D8024B8000C05800E0B0
:1014500001487047E4290000AA270000036C10B57A
:10146000092B12DC826B01328263426C141C123431
:10147000A4000419013261600A2A00D1002201335C
:1014800042640364FFF71AFF02E0C36B0133C363D6
:1014900010BD00000000000070B5051C1F4B1E4A67
:1014A000281CFFF713FD1E4B5A69D107F6D55A6960
:1014B000D107FCD51A4B1E68F6B2402E01D1FFF7BA
:1014C000D9FE8D239B00EC588E239B00E0588D2382
:1014D0009B00C0180121FFF7C1FF8F218900601810
:1014E000026C632A12DC816BA12301318163416CA0
:1014F0009B006418E41801312671642900D1002191
:10150000013241640264FFF7D9FEC7E7C26B0132C2
:10151000C263C3E7C046C046E02E000000000000E2
:1015200000800040C046C04673B5051C8F20800077
:101530002C18236C002B08D161689123B1319B00DA
:10154000FF31EA586846FFF78FFC226C002A0AD167
:101550002F493048FEF7A8FD2F49FEF7A5FD2F497A
:10156000FEF7A2FDFEE7A36CA120E9188000091890
:1015700001330E79642B00D10023A364531E23642E
:10158000201C002B02DDFFF799FE01E0FFF7D7F8E2
:101590008E239B00E8588D239B000121C0184942EF
:1015A000FFF75CFF202E05D1281C184B164AFFF7C9
:1015B0008DFCBBE7301CFFF743FF8D239B00EA58EF
:1015C000A42189005318DC69986258680134DC61F1
:1015D000002804D000225A60FFF7CEFBA6E754583B
:1015E000002C0AD00A490B48FEF75EFD0C49FEF7B5
:1015F0005BFD0A49FEF758FDFEE70A4B186850509C
:10160000FFF7FEFB92E7C04600B2000200000000B8
:10161000D82400000000001013290000A9270000B2
:10162000332900002C000010F0B5AA2300219B00F4
:10163000C150041C8D2080002518281C85B0FFF7A0
:101640000DFF514A8020D36F40020343D3674F4BB5
:1016500007211E6880278E433E431E604C4B102797
:101660001E683E431E60D66F0643D667494E3768F4
:101670008F4337601E6820273E431E60D66F0643A7
:10168000D667454E37688F4337601F6880267600DF
:101690003E431E60D66F3043D067404A106888438F
:1016A00010601968802292000A431A60296C002990
:1016B00008D169688F23B1319B00FF31E25802A83D
:1016C000FFF7D2FB2A6C364F002A0AD13549381C65
:1016D000FEF7EAFC3449FEF7E7FC3449FEF7E4FC88
:1016E000FEE7AB6C8D20191C123189006118800057
:1016F00009184968013301910A2B00D10023AB641A
:10170000531E2B64281C002B02DDFFF7D7FD01E0E0
:10171000FFF715F8AA26B600019AA159381C8B18B4
:10172000A3512349FEF7C0FCA159FEF703FD21494F
:10173000FEF7BAFCA359DA17D31A1F4ADB17136056
:10174000A0590123984200DC00231C4A5B4213602D
:10175000A2590123022A00DC0023194A5B421360CC
:10176000AA229200A2580123032A00DC0023154A72
:101770005B4213608F239B00E258D8235B0002A8D2
:10178000E118FFF771FB91E70480044094400440A6
:1017900000800150A0400440144004403840044000
:1017A00000000010D824000013290000A927000021
:1017B0004D290000A8270000400001508000015082
:1017C0000004015000080150124B01229A67196F62
:1017D000032081431967596F91435967596F0A4331
:1017E0005A678E22920098588021084398502320EF
:1017F0009860985888439850D8680121054A084253
:10180000FAD003231367536F8B435367536F194306
:10181000516770470080044038B5FFF7D5FF214B72
:1018200080229203DA67204B8022D96F52020A434A
:10183000DA67DA6F802040010243DA671B4A072526
:101840001168A9431160146801210C431460184AFF
:101850001468AC43146014680C431460DA6F154CC0
:101860001043D8678323E360134B14481960144B6B
:1018700096219B6F0903594300F01EF9030A636028
:10188000C0B203232060E360A560636962696023DE
:101890001340602BFAD16369DA0702D5054B1B6848
:1018A000F9E738BD04E100E004800440A4400440AE
:1018B000A84004400080004098800440006CDC0296
:1018C0000080044000000000F0B5354C8D26A54492
:1018D000FFF7A2FF334D344BFFAFF4372B61334991
:1018E000281CFEF7E1FB381C0021314AFFF772FC8F
:1018F000304BFFAAF4321360E5202F4BC000391C97
:1019000000936844254B244AFFF700FCF020C000F8
:101910002A496844FFF710F90321294A90A8FFF7E4
:1019200059FC284BFFA890A9274A7830F6249093B9
:10193000E400FFF7DFF8254B6C44B60090AA935102
:101940000121234A201CFFF745FCF622214BD2003F
:101950006A44136020488E239B0090AAE250211C09
:101960001E4A6844A751FFF7C5F81D4A8F239B0004
:10197000E25001211B4A02A8FFF72CFC1A4F02ABD0
:101980009C510297FFF772FB281C1849FEF78CFB4D
:1019900002A80297FFF79AFCE02E0000000000006A
:1019A0005CF5FFFF000000108D12000058290000B8
:1019B0006429000050280000E82500006929000083
:1019C00077290000782800007B29000068280000A3
:1019D00089290000A0280000EC0900008F290000E0
:1019E0009028000095290000B82800009A290000DE
:1019F00010B50F4B0F4A191D043B934203D0002230
:101A00001A600B1CF6E70C4A0C490023891A890856
:101A10000131890004338B4207D0094CD0181C19BE
:101A2000043C246804380460F4E7FFF74DFFFEE748
:101A30001C000010680000100000001014000010CE
:101A4000542A00007047000070B5154E154C3578CB
:101A5000002D08D1FFF7B8FE134B2560636001230A
:101A6000A56023603370A068104BC0431A68000261
:101A7000000A1C1C0E49904207D20D684E68074BA5
:101A8000054A521973410A604B600E68206049682C
:101A9000304370BDC046C046000000010000000099
:101AA0006400001010E000E0FFFFFF006000001085
:101AB00058000010C046C046002934D0012300223F
:101AC00010B488422CD301242407A14204D28142BD
:101AD00002D209011B01F8E7E400A14204D28142CD
:101AE00002D249005B00F8E7884201D3401A1A434A
:101AF0004C08A04202D3001B5C0822438C08A04281
:101B000002D3001B9C082243CC08A04202D3001B36
:101B1000DC082243002803D01B0901D00909E3E7B0
:101B2000101C10BC7047002801D00020C04307B42F
:101B3000024802A14018029003BDC046D90000002F
:101B40000029F0D003B5FFF7B9FF0EBC4243891A54
:101B50001847C046002941D010B4041C4C40A4468C
:101B600001230022002900D54942002800D5404227
:101B700088422CD301242407A14204D2814202D2FC
:101B800009011B01F8E7E400A14204D2814202D21C
:101B900049005B00F8E7884201D3401A1A434C0819
:101BA000A04202D3001B5C0822438C08A04202D34F
:101BB000001B9C082243CC08A04202D3001BDC0877
:101BC0002243002803D01B0901D00909E3E7101CB8
:101BD0006446002C00D5404210BC7047002806D057
:101BE00003DB0020C043400801E08020000607B46A
:101BF000024802A14018029003BDC046190000002F
:101C00000029EBD003B5FFF7A7FF0EBC4243891AAA
:101C10001847C0467047C046002B15D1002A13D183
:101C2000002900D1002807D003DB0020C043410871
:101C300002E080210906002007B4024801A14018F3
:101C4000029003BDD1FFFFFF03B4684601B50298BF
:101C500000F006F8019B9E4602B00CBC7047C046DF
:101C6000F0B583B0161C1F1C0090019100F050F8D5
:101C7000041C0D1C221C2B1C301C391C00F026F8E7
:101C8000009A019B121A8B410899201C0A604B6034
:101C9000291C03B0F0BDC046F0B583B0141C1D1C58
:101CA0000090019100F010FA221C2B1C061C0F1C46
:101CB00000F00CF8009A019B121A8B410899301C15
:101CC0000A604B60391C03B0F0BDC0469C4603045B
:101CD000F0B51B0C17043F0C150C1E1C041C000C4B
:101CE0007E436B4347434543FB18300C181887422B
:101CF00002D980235B02ED18030CED1863465C43A8
:101D00004A433604360CA118000480194919F0BD65
:101D1000F0B544465F4656464D46F0B41C1C85B0AF
:101D2000002900DADBE00F1C0021061C8A46101C8B
:101D3000191C002C00DAC9E0019600908946804603
:101D4000002951D1B84200D871E000F07FFB002893
:101D500009D020234546311C1B1A85408740D940B5
:101D6000A8460F4386404246150C13041B0C291C41
:101D7000381C9B46FFF7A0FE5B464343041C291C0E
:101D8000381C9946FFF7DCFE330C080418438145E4
:101D900009D94044631E804500D978E1814500D8C7
:101DA00075E1023C40444946411A8946081C291CF9
:101DB000FFF782FE5A464243071C291C48469346B9
:101DC000FFF7BEFE36040904360C0E43B34507D9AF
:101DD00046447B1EB04502D8023FB34500D81F1CC5
:101DE00024042743002403E0B94211D9002400272A
:101DF0005246381C211C002A03D03B1C00215842AB
:101E0000A14105B03CBC90469946A246AB46F0BD08
:101E1000081C00F01BFB041E00D0BFE0B94500D237
:101E200042E1019D0099071C8D424741E0E70028EF
:101E300004D101200021FFF73FFE8046404600F01C
:101E400005FB002852D1414644460B043C1B1B0CA9
:101E5000A3460D0C00930124291C5846FFF72CFEC5
:101E6000009F81464743291C5846FFF769FE330C03
:101E7000090419438F4208D94B464144013B884528
:101E800002D88F4200D91AE19946C91B8B46081C1B
:101E9000291CFFF711FE009B291C4343071C5846D1
:101EA0000093FFF74DFE3604009D0904360C0E43E7
:101EB000B54207D946447B1EB04502D8023FB54221
:101EC00000D81F1C49460E04374391E75246D243BF
:101ED000031C0C1C924600215842A1412CE700270C
:101EE00046428F41012149428A4620E720231B1A9E
:101EF0004246351C82403C1CDD40DC4087402B1CA8
:101F0000150C3B43291C8640201C00931704904667
:101F1000FFF7D2FD3F0C011C794381468B46201C04
:101F2000291CFFF70DFE009C0904230C19438B4567
:101F30000CD94B464144013B884500D9BDE08B4557
:101F400000D8BAE002225242914441445C460C1B44
:101F5000201C291C0194FFF7AFFD391C4143041CD0
:101F60008B460198291CFFF7EBFD009A0904130426
:101F70001B0C19438B4509D94144631E884500D980
:101F800097E08B4500D894E0023C41445B46CB1A75
:101F900049469B460B041C4300975DE7009D2023A8
:101FA0001B1A4A468240DD401543391C009AD9402D
:101FB00082408846311C0092D9403A1C82400B1C5A
:101FC000134301932F0C2B041B0C391C4046029326
:101FD000FFF772FD029A81464243391C4046934600
:101FE000FFF7AEFD019A0904130C19438B450AD97A
:101FF0004B464919013B8D425DD88B455BD9022385
:102000005B42994449195A468A1A101C391C03929A
:10201000FFF752FD029B80464343391C03989B46C1
:10202000FFF78EFD019A090413041B0C19438B451D
:102030000AD943464919013B8D4238D88B4536D9D8
:1020400002235B42984449195D464D1BAB46494605
:10205000009D0F04424617432A04120C3B042D0C2A
:102060001B0C380C111C594342436B436843D31873
:102070000D0C5B198C469A4202D9802252028018BC
:102080001D0C401983450CD303D00024B0E61C1C62
:1020900089E665462A041B04120C9B18A6409E4242
:1020A000F3D2013F0024A3E600240127A0E69846CE
:1020B000CAE71C1C6AE79946A5E7994646E702224B
:1020C000524291444144E0E6F0B55F4656464D46E3
:1020D0004446F0B40D1C85B0061C9246984602900A
:1020E000019103921F1C141C8346A946002B59D151
:1020F000AA4269D9101C00F0A9F900280AD02023AF
:102100001B1A311CD94085400B1C2B438640844050
:102110009946B346250C23041B0C291C48469846B7
:10212000FFF7CAFC4646071C4643291C4846FFF7F2
:1021300007FD5A460904130C19438E4209D909199F
:102140007B1E8C4200D957E18E4200D854E1023FF9
:102150000919891B8946081C291CFFF7ADFC434659
:102160004343061C291C48469846FFF7E9FC5A469B
:10217000130409041B0C1943884508D90919731E57
:102180008C4200D936E1023E884500D832E138045D
:1021900030430027391C05B03CBC90469946A24606
:1021A000AB46F0BD019A934262D8181C00F04EF97C
:1021B000041E60D1019B9F4200D22CE1029F039933
:1021C0008F4260410027E5E7002A04D10120002169
:1021D000FFF772FC041C201C00F038F9002800D026
:1021E000B9E023042D1B1B0CA946260C9846012799
:1021F000311C4846FFF760FC41464143051C8A46B6
:102200004846311CFFF79CFC5A460804130C18433F
:10221000824507D900196B1E844202D8824500D935
:1022200010E11D1C5346C31A181C311C9A46FFF7B7
:1022300043FC41464143814688465046311CFFF7E6
:102240007FFC5A46130409041B0C194388450BD91B
:102250004B460919013B8C4200D9CFE0884500D894
:10226000CCE002235B42994428044946084391E7A5
:10227000002700208EE720231B1A42465746824043
:10228000DF401743524682400192321CDA40291C3B
:10229000D9408540131C2B4302933D0C3B041B0C7F
:1022A0008846081C291C9A46FFF706FC5346434300
:1022B0008146291C40469B46FFF742FC029A0904CE
:1022C000130C19438B4506D94B46C919013B8F4264
:1022D00000D8ABE099465A468A1A101C291C93462E
:1022E000FFF7EAFB53464343291C804658469A466B
:1022F000FFF726FC029A090415042D0C29438A4590
:1023000006D94346C919013B8F4200D886E098465A
:102310005746CF1BBA464946019F08044246104320
:102320003D042D0C03043F0C1B0C020C291C5943CB
:1023300055437B437A43EB180F0CDB198C469D42C7
:1023400002D980277F02D2191D0C521992455FD302
:1023500056D000271EE720231B1A311C2F1CD94002
:10236000DF4085400B1C84402B4386400193B346DD
:102370002304260C1B0C381C311C9846FFF79CFBD1
:1023800042464243051C311C381C9146FFF7D8FBDE
:10239000019F09043B0C1943894507D909196B1E94
:1023A0008C424DD889454BD9023D09194A468A1AB3
:1023B000101C311C9246FFF77FFB43464343071C2A
:1023C000311C50469946FFF7BBFB019A09041304E0
:1023D0001B0C1943894507D909197B1E8C422DD83E
:1023E00089452BD9023F09194B46CB1A2D04994632
:1023F0002F43FDE61E1CCAE61F1CAAE6994633E7DA
:1024000061460A041B04120C9B18A6409E42A0D2EF
:1024100001380027BEE600270120BBE68A4500D828
:1024200075E702235B429844C91971E78B4500D8D0
:1024300050E702235B429944C9194CE71F1CD3E7BC
:102440001D1CB3E7023D0019ECE6C0461C21012328
:102450001B04984201D3000C10391B0A984201D387
:10246000000A08391B09984201D30009043902A265
:10247000105C40187047C0460403020201010101CC
:10248000000000000000000000000000000000004C
:102490003F070000000000000000000000000000F6
:1024A000451A000045000000000000000000000088
:1024B0003F070000000000000000000000000000D6
:1024C0004F0700009D0D0000E0FFFFFF000000002F
:1024D000D10D0000450000000A203E3E20466174F8
:1024E000616C206572726F723A20000A3E3E20468F
:1024F0006174616C206572726F723A207461736BE3
:1025000020002072657475726E65642066726F6D4E
:10251000206D61696E28290A004200530052007440
:1025200061736B206E616D65007072696F0073740A
:102530006174650072745F6D6178006163746976BF
:102540006500737420752F6D20286229002F0063A9
:102550006F6D706172696E6720696E636F6D706117
:102560007469626C65207761697461626C6573007F
:10257000616464696E6720696E636F6D7061746910
:10258000626C65207761697461626C657300657661
:10259000656E7420743D00206D3D30780074727556
:1025A000650066616C73650031003000666C6167C0
:1025B000206E616D6500636C69656E7400666E0007
:1025C0007365747300676574730074696D65722058
:1025D0006E616D650063616E63656C7300636C6F43
:1025E000636B206E616D6500696E74657276616CF7
:1025F000007469636B73006D6178203332207761FA
:10260000697461626C657320706572207461736BAC
:10261000006D75746578206E616D65006F776E650D
:102620007200776169747300202020776169746596
:102630007273002020205B20005D0A006D757465B8
:10264000782064657374727563746F722063616C53
:102650006C6564006368616E6E656C206E616D65AB
:10266000007772697465730069676E6F72657300D5
:102670006375722E73697A6500706F6F6C206E617E
:102680006D65007265616473006D61696C626F787D
:10269000206E616D650077726974657200726561A4
:1026A0006465720052544F532076657273696F6E81
:1026B00020203A200056342E30302D434D30202833
:1026C000323031342D31322D303229006E6F20748A
:1026D00061736B730A006E6F20666C6167730A002A
:1026E0006E6F2074696D6572730A006E6F20636C83
:1026F0006F636B730A006E6F206368616E6E656C4A
:10270000730A006E6F206D7574657865730A006ECC
:102710006F206D61696C626F7865730A006E6F205F
:10272000706F6F6C730A006D75746578206E6F74CE
:10273000207369676E616C6564206279206F776EC3
:102740006572207461736B007461736B206E6F74BB
:1027500020626C6F636B65642062792069747365B5
:102760006C660072756E6E696E67207461736B20A3
:102770006973206E6F74205245414459213F000A0D
:102780000A2A2A2A2A2A2A2A2A2A2A20444541446D
:102790004C4F434B204445544543544544202A2A3A
:1027A0002A2A2A2A2A2A2A2A0A0A00646561646CCB
:1027B0006F636B206465746563746564005363685C
:1027C0006564756C65722073746172747300696CF2
:1027D0006C6567616C207461736B207072696F72D5
:1027E000697479006475706C6963617465207461E3
:1027F000736B207072696F72697479005F5F736CBC
:10280000656570000000000000000000000000008E
:102810003F07000057070000E10D0000E0FFFFFF49
:1028200000000000F10D00006D0700000000000036
:102830000000000000000000451A0000610D0000CB
:102840006D0D00000000000000000000000000000E
:1028500081130000610D00006D0D000000000000FC
:102860000000000000000000AD12000000000000A9
:10287000000000000000000029160000610D0000AB
:102880006D0D0000000000000000000000000000CE
:102890009D12000000000000000000000000000089
:1028A00029150000610D00006D0D00000000000002
:1028B000000000000000000099140000610D0000FD
:1028C0006D0D0000000000007461736B206465737F
:1028D00074727563746F722063616C6C65640063FD
:1028E00068616E6E656C2064657374727563746F75
:1028F000722063616C6C6564007365636F6E642045
:1029000072656164657220666F72206D61696C62C8
:102910006F78006368616E6E656C2073686F756CAC
:1029200064206E6F7420626520656D707479206E0E
:102930006F77007365636F6E642077726974657278
:1029400020666F72206D61696C626F780076616CD1
:1029500075652069733A200052544F532064656DA9
:102960006F0A0A0062656570006D6F7273655F6D56
:1029700061696C626F7800626172006261725F69A6
:102980006E64696361746F72006D6F72736500735A
:10299000746F726500706F6C6C006261636B2069AC
:1029A0006E206D61696E002D2E2E2E002D2E2D2E87
:1029B000002E2E2D2E002E2E2E2E002E2D2D2D00F3
:1029C0002E2D2E2E002E2D2D2E002D2D2E2D002EB7
:1029D0002E2E2D002D2E2E2D002D2E2D2D002D2DA9
:1029E0002E2E0000CC290000A7290000AC290000F1
:1029F000DF290000C8290000B1290000C629000015
:102A0000B6290000E0290000BB290000CB29000006
:102A1000C0290000BD290000C7290000BC29000012
:102A2000C5290000CA290000AD290000A82900001E
:102A3000BE290000D5290000CF290000DA290000B6
:0C2A4000D4290000D9290000DE29000084
:082A4C00C4F2FF7F010000004D
:102A5400000000000A000000204101000000000006
:042A6400000000006E
:04000003000019F1EF
:00000001FF
